:100000000AC018951895189518951895189518956B
:100010001895189518958FED8DBFC8EBE0EA4E2E18
:10002000DD275D2EEEE7F0E0A0E6B0E088278D93B7
:100030003197E9F7662480E081BB8FEF87BB8EE1C3
:1000400081BD86E081BD85E190E0A1E68D939C9322
:1000500080E090E0A3E68D939C9380E090E0A5E69D
:100060008D939C9380E090E0A7E68D939C9380E035
:1000700090E0ABE68D939C9380E090E0ADE68D93AD
:100080009C9380E090E0AFE68D939C9380E090E0BD
:10009000A9E68D939C9370E078BB81E0809360002B
:1000A00000916000043110F009F011C088B394E0B1
:1000B000892788BB88B398E0892788BB88EC90E0C3
:1000C0006FD2A0E68C918F5F8C9308F4E9CF84EF18
:1000D00091E066D281E0809360000091600004307E
:1000E00010F009F00DC088B391E0892788BB84E641
:1000F00090E056D2A0E68C918F5F8C9308F4EDCF00
:1001000088EE93E04DD281B5886081BD70E078BB08
:10011000A5E60D911C91003050E0150709F001C0D3
:10012000C098A5E60D911C91003050E0150714F021
:1001300009F001C009C0A5E60D911C9101501040C5
:10014000A5E60D931C93C09AA7E60D911C91003073
:1001500050E0150709F001C0C198A7E60D911C9168
:10016000003050E0150714F009F001C009C0A7E6FF
:100170000D911C9101501040A7E60D931C93C19A5C
:10018000A3E60D911C910E3150E0150781E009F0B6
:1001900080E08F93A3E60D911C91003250E015078B
:1001A00081E009F080E09F91892B8F93A3E60D9168
:1001B0001C91023250E0150781E009F080E09F9128
:1001C000892B882309F401C0C298A3E60D911C91E4
:1001D0000F3150E0150781E009F080E08F93A3E62E
:1001E0000D911C91013250E0150781E009F080E08B
:1001F0009F91892B8F93A3E60D911C91033250E0C0
:10020000150781E009F080E09F91892B882309F48C
:1002100001C0C29AA3E60D911C91003050E0150771
:1002200014F009F001C008C0A3E60D911C91015023
:100230001040A3E60D931C93AFE60D911C91003086
:1002400050E0150780E014F009F081E08F93A3E6F9
:100250000D911C91003050E0150781E009F080E01D
:100260009F918923882309F405C083E290E0A3E6E7
:100270008D939C93ADE60D911C91003050E01507D5
:1002800080E014F009F081E08F93A3E60D911C91BA
:10029000003050E0150781E009F080E09F9189234C
:1002A000882309F405C081E290E0A3E68D939C9336
:1002B000ABE60D911C91003050E0150780E014F082
:1002C00009F081E08F93A3E60D911C91003050E07E
:1002D000150781E009F080E09F918923882309F4C4
:1002E00005C08FE190E0A3E68D939C93A0E30C9171
:1002F00000FB81E00EF480E08F93ABE60D911C9142
:10030000003050E0150781E009F080E09F918923DB
:10031000882309F405C081E090E0A5E68D939C93C5
:10032000A0E30C9101FB81E00EF480E08F93ADE639
:100330000D911C91003050E0150781E009F080E03C
:100340009F918923882309F405C08AE090E0A5E6FF
:100350008D939C93A0E30C9102FB81E00EF480E06E
:100360008F93AFE60D911C91003050E0150781E0AE
:1003700009F080E09F918923882309F405C08EE16C
:1003800090E0A7E68D939C93ABE60D911C91003015
:1003900050E0150714F009F001C008C0ABE60D915C
:1003A0001C9101501040ABE60D931C93ADE60D91EE
:1003B0001C91003050E0150714F009F001C008C08E
:1003C000ADE60D911C9101501040ADE60D931C93CC
:1003D000AFE60D911C91003050E0150714F009F0C4
:1003E00001C008C0AFE60D911C9101501040AFE66E
:1003F0000D931C93809905C088E290E0ABE68D9345
:100400009C93819905C088E290E0ADE68D939C9322
:10041000829905C088E290E0AFE68D939C93A9E6AF
:100420000D911C91003050E0150714F009F001C047
:1004300008C0A9E60D911C9101501040A9E60D934A
:100440001C93A9E60D911C91013050E0150709F0AD
:1004500005C081E090E0A5E68D939C93ABE60D91FD
:100460001C91003050E0150781E009F080E08F9387
:10047000ADE60D911C91003050E0150781E009F0C8
:1004800080E09F9189238F93AFE60D911C910030FE
:1004900050E0150781E009F080E09F9189238823CF
:1004A00009F405C080E090E0A9E68D939C93ABE64B
:1004B0000D911C91003050E0150780E014F009F018
:1004C00081E08F93ADE60D911C91003050E015074F
:1004D00080E014F009F081E09F91892B8F93AFE6C3
:1004E0000D911C91003050E0150780E014F009F0E8
:1004F00081E09F91892B8F93A9E60D911C9100308B
:1005000050E0150781E009F080E09F91892388235E
:1005100009F405C080E19EE0A9E68D939C93A1E6D5
:100520000D911C91003050E0150714F009F001C046
:1005300008C0A1E60D911C9101501040A1E60D9359
:100540001C93A1E60D911C91063050E0150709F0AF
:1005500001C0C39AA1E60D911C91013050E015072E
:1005600009F001C0C398A1E60D911C91003050E044
:10057000150709F005C085E190E0A1E68D939C93F5
:10058000A89584E690E00CD0C3CDF894FFCF3197C6
:10059000F1F70895689462F80895E89462F8089570
:1005A000EF93FF93EE27E82BE92B31F0E8EEF3E031
:0E05B0003197F1F70197D1F7FF91EF91089580
:00000001FF
